{
  "contractName": "EasyInvest5",
  "abi": [
    {
      "stateMutability": "payable",
      "type": "fallback",
      "payable": true
    },
    {
      "inputs": [
        {
          "internalType": "address",
          "name": "",
          "type": "address"
        }
      ],
      "name": "atBlock",
      "outputs": [
        {
          "internalType": "uint256",
          "name": "",
          "type": "uint256"
        }
      ],
      "stateMutability": "view",
      "type": "function",
      "constant": true
    },
    {
      "inputs": [
        {
          "internalType": "address",
          "name": "",
          "type": "address"
        }
      ],
      "name": "invested",
      "outputs": [
        {
          "internalType": "uint256",
          "name": "",
          "type": "uint256"
        }
      ],
      "stateMutability": "view",
      "type": "function",
      "constant": true
    },
    {
      "inputs": [
        {
          "internalType": "address",
          "name": "userAddress",
          "type": "address"
        }
      ],
      "name": "getValueInvested",
      "outputs": [
        {
          "internalType": "uint256",
          "name": "value",
          "type": "uint256"
        }
      ],
      "stateMutability": "view",
      "type": "function",
      "constant": true
    },
    {
      "inputs": [
        {
          "internalType": "address",
          "name": "userAddress",
          "type": "address"
        }
      ],
      "name": "getValueAtBlock",
      "outputs": [
        {
          "internalType": "uint256",
          "name": "value",
          "type": "uint256"
        }
      ],
      "stateMutability": "view",
      "type": "function",
      "constant": true
    }
  ],
  "bytecode": "0x608060405234801561001057600080fd5b5061064d806100206000396000f3fe6080604052600436106100435760003560e01c80633f56e29c1461022b57806366b3f6bf146102685780638aac1362146102a5578063aa832eb5146102e257610044565b5b60008060003373ffffffffffffffffffffffffffffffffffffffff1673ffffffffffffffffffffffffffffffffffffffff168152602001908152602001600020541461019057600061170c600160003373ffffffffffffffffffffffffffffffffffffffff1673ffffffffffffffffffffffffffffffffffffffff16815260200190815260200160002054436100da9190610419565b606460056000803373ffffffffffffffffffffffffffffffffffffffff1673ffffffffffffffffffffffffffffffffffffffff16815260200190815260200160002054610127919061044d565b61013191906104d6565b61013b919061044d565b61014591906104d6565b90503373ffffffffffffffffffffffffffffffffffffffff166108fc829081150290604051600060405180830381858888f1935050505015801561018d573d6000803e3d6000fd5b50505b43600160003373ffffffffffffffffffffffffffffffffffffffff1673ffffffffffffffffffffffffffffffffffffffff16815260200190815260200160002081905550346000803373ffffffffffffffffffffffffffffffffffffffff1673ffffffffffffffffffffffffffffffffffffffff16815260200190815260200160002060008282546102229190610507565b92505081905550005b34801561023757600080fd5b50610252600480360381019061024d91906105c0565b61031f565b60405161025f91906105fc565b60405180910390f35b34801561027457600080fd5b5061028f600480360381019061028a91906105c0565b610368565b60405161029c91906105fc565b60405180910390f35b3480156102b157600080fd5b506102cc60048036038101906102c791906105c0565b610380565b6040516102d991906105fc565b60405180910390f35b3480156102ee57600080fd5b50610309600480360381019061030491906105c0565b610398565b60405161031691906105fc565b60405180910390f35b6000600160008373ffffffffffffffffffffffffffffffffffffffff1673ffffffffffffffffffffffffffffffffffffffff168152602001908152602001600020549050919050565b60006020528060005260406000206000915090505481565b60016020528060005260406000206000915090505481565b60008060008373ffffffffffffffffffffffffffffffffffffffff1673ffffffffffffffffffffffffffffffffffffffff168152602001908152602001600020549050919050565b6000819050919050565b7f4e487b7100000000000000000000000000000000000000000000000000000000600052601160045260246000fd5b6000610424826103e0565b915061042f836103e0565b925082821015610442576104416103ea565b5b828203905092915050565b6000610458826103e0565b9150610463836103e0565b9250817fffffffffffffffffffffffffffffffffffffffffffffffffffffffffffffffff048311821515161561049c5761049b6103ea565b5b828202905092915050565b7f4e487b7100000000000000000000000000000000000000000000000000000000600052601260045260246000fd5b60006104e1826103e0565b91506104ec836103e0565b9250826104fc576104fb6104a7565b5b828204905092915050565b6000610512826103e0565b915061051d836103e0565b9250827fffffffffffffffffffffffffffffffffffffffffffffffffffffffffffffffff03821115610552576105516103ea565b5b828201905092915050565b600080fd5b600073ffffffffffffffffffffffffffffffffffffffff82169050919050565b600061058d82610562565b9050919050565b61059d81610582565b81146105a857600080fd5b50565b6000813590506105ba81610594565b92915050565b6000602082840312156105d6576105d561055d565b5b60006105e4848285016105ab565b91505092915050565b6105f6816103e0565b82525050565b600060208201905061061160008301846105ed565b9291505056fea2646970667358221220931eef6cb510997086a2c512babd77c930941445fddf19f85c952795403a832464736f6c634300080a0033",
  "immutableReferences": {},
  "source": "pragma solidity >=0.4.22 <0.9.0;\n\ncontract EasyInvest5 {\n    // records amounts invested\n    mapping (address => uint256) public invested;\n    // records blocks at which investments were made\n    mapping (address => uint256) public atBlock;\n\n    // this function called every time anyone sends a transaction to this contract\n    fallback() external payable {\n        // if sender (aka YOU) is invested more than 0 ether\n        if (invested[msg.sender] != 0) {\n            // calculate profit amount as such:\n            // amount = (amount invested) * 5% * (blocks since last transaction) / 5900\n            // 5900 is an average block count per day produced by Ethereum blockchain\n            uint256 amount = invested[msg.sender] * 5 / 100 * (block.number - atBlock[msg.sender]) / 5900;\n\n            // send calculated amount of ether directly to sender (aka YOU)\n            payable(msg.sender).transfer(amount);\n        }\n\n        // record block number and invested amount (msg.value) of this transaction\n        atBlock[msg.sender] = block.number;\n        invested[msg.sender] += msg.value;\n    }\n\n    function getValueInvested(address userAddress) public view returns(uint value) {\n        return invested[userAddress];\n    }\n    function getValueAtBlock(address userAddress) public view returns(uint value) {\n        return atBlock[userAddress];\n    }\n}\n",
  "sourcePath": "/home/karl/2021haustnn/raf/test2/contracts/EasyInvest5.sol",
  "compiler": {
    "name": "solc",
    "version": "0.8.10+commit.fc410830.Emscripten.clang"
  },
  "schemaVersion": "3.4.3",
  "updatedAt": "2021-12-15T03:40:36.260Z",
  "networkType": "ethereum",
  "devdoc": {
    "kind": "dev",
    "methods": {},
    "version": 1
  },
  "userdoc": {
    "kind": "user",
    "methods": {},
    "version": 1
  }
}